:030000000203DD1B
:10000300C0E0C0D0C000C001C002E4F538F539F546
:100013003AF53BF53C7A20E533A2E779047830E6FC
:1000230033F608D9FA79057838E636D4F608D9F9DB
:10003300DAE5D002D001D000D0D0D0E022C0E0C0B9
:10004300D0C000C001C002E4F538F539F53AF53BFC
:10005300F53C7A20E533A2E779047830E633F608F5
:10006300D9FA79057838C0D0E6243320E70224D0C2
:1000730020E30224FDD0D033F608D9EADAD6D00241
:10008300D001D000D0D0D0E022C0E0C0D0C000C0AA
:1000930001C0027A207905C3783CE613C0D030E76B
:1000A3000224D030E30224FDF618D0D0D9EC790431
:1000B3007833E613F618D9FADADBD002D001D00090
:1000C300D0D0D0E022C0E0C0D0E5302534F530E513
:1000D300313535F531E5323536F532E5333537F53A
:1000E30033D0D0D0E022C0E0C0D0C3E5309534F5A2
:1000F30030E5319535F531E5329536F532E5339511
:1001030037F533D0D0D0E022C0E0C0D0C3E530957E
:1001130034E5319535E5329536E53395379200D0A0
:10012300D0D0E022C0E0C0D0C3E5349530E53595AA
:1001330031E5369532E53795339200D0D0D0E022C1
:10014300C0E0C0D0C3E53D9530E53E9531E53F9530
:1001530032E54095339200D0D0D0E022C0E0C0D049
:10016300C200C3E53495307014E5359531700EE562
:100173003695327008E53795337002D200D0D0D06F
:10018300E02212015F2000030201272212015F20F7
:10019300000302010B22C0E0C0F0C0D0C000C001C8
:1001A300C002C003E5308534F0A4F8A9F0E5318539
:1001B30034F0A429F9E435F0FAE5308535F0A429C3
:1001C300F9E5F03AFAE433FBE5328534F0A42AFA90
:1001D300E5F03BFBE5318535F0A42AFAE5F03BFB7E
:1001E300E5308536F0A42AFAE5F03BFBE5338534A8
:1001F300F0A42BFBE5328535F0A42BFBE5318536E6
:10020300F0A42BFBE5308537F0A42BFB8B338A322C
:1002130089318830D003D002D001D000D0D0D0F0C3
:10022300D0E022C0E0C0D0C000C001C002C003C003
:10023300047C20E4F8F9FAFBC3E53033F530E5310B
:1002430033F531E53233F532E53333F533E833F85B
:10025300E933F9EA33FAEB33FBC3E89534E995352F
:10026300EA9536EB95374013E89534F8E99535F977
:10027300EA9536FAEB9537FB433001DCBBD004D06B
:1002830003D002D001D000D0D0D0E0228530348515
:10029300313585323685333722853430853531859E
:1002A30036328537332285303D85313E85323F8571
:1002B300334022E530C534F530E531C535F531E558
:0C02C30032C536F532E533C537F533227D
:1002CF00C0F9A4B0999282F8809008034621060ED7
:1002DF002001319002CFE538540F93F591E538C4E2
:1002EF00540F93F592E539540F93F593E539C454B0
:1002FF000F93F594E53A540F93F58EE53AC4540FE6
:10030F0093F58F229002CFE530540F93F591E5309E
:10031F00C4540F93F592E531540F93F593E531C41F
:10032F00540F93F594E532540F93F58EE532C45480
:10033F000F93F58F227804C3E53833F538E5393359
:10034F00F539E53A33F53AE53B33F53BE53C33F523
:10035F003CD8E4EF4538F538E4F53C22781E794A6D
:10036F007AFADAFED9FAD8F622ACE8E5955403FD0D
:10037F00EC4D602B12036BE5E8C39C7022E595549E
:10038F0003C39D701A7F10C3EC33FCED33FD4004A3
:10039F00DFF5800B1FD3E5E870FCE59570FC22C3F9
:1003AF0022E5F0B4000375E801B4010375E802B467
:1003BF00020375E804B4030375E808B4040375E891
:1003CF0010B4050375E820B4060375E84022758163
:1003DF007FE4F5E8F595F538F539F53AF53BF53C59
:1003EF001202DF1203B020FB1030FBFD05F0E5F029
:1003FF00B407F075F0000203F220FA1E30FAFD1276
:10040F00008C12028F753000753100753200753314
:10041F00001200031202DF0203F220F91130F9FD7E
:10042F0012008CE5F0B400091200C8020440020467
:10043F00B7B401061202B61200E9B4020312019911
:10044F00B403061202B6120226B4040C1202B6123C
:10045F0000E912010B3000F7B40502D201B4063FD8
:10046F001202A97530017531007532007533001213
:10047F00028F12019912014320001275300175315C
:10048F00007532007533001200C802047E7530010A
:10049F007531007532007533001202B61200E91281
:1004AF0000031202DF0203F2120378500812034412
:0804BF00C2011202DF0203F288
:00000001FF
